{
  "contractName": "Election",
  "abi": [
    {
      "inputs": [],
      "stateMutability": "nonpayable",
      "type": "constructor"
    },
    {
      "anonymous": false,
      "inputs": [
        {
          "indexed": true,
          "internalType": "uint256",
          "name": "candidateId",
          "type": "uint256"
        }
      ],
      "name": "AddCandidateEvent",
      "type": "event"
    },
    {
      "anonymous": false,
      "inputs": [
        {
          "indexed": true,
          "internalType": "uint256",
          "name": "candidateId",
          "type": "uint256"
        }
      ],
      "name": "VotedEvent",
      "type": "event"
    },
    {
      "inputs": [
        {
          "internalType": "uint256",
          "name": "",
          "type": "uint256"
        }
      ],
      "name": "candidates",
      "outputs": [
        {
          "internalType": "uint256",
          "name": "id",
          "type": "uint256"
        },
        {
          "internalType": "string",
          "name": "name",
          "type": "string"
        },
        {
          "internalType": "uint256",
          "name": "voteCount",
          "type": "uint256"
        },
        {
          "internalType": "string",
          "name": "party",
          "type": "string"
        }
      ],
      "stateMutability": "view",
      "type": "function"
    },
    {
      "inputs": [],
      "name": "candidatesCount",
      "outputs": [
        {
          "internalType": "uint256",
          "name": "",
          "type": "uint256"
        }
      ],
      "stateMutability": "view",
      "type": "function"
    },
    {
      "inputs": [],
      "name": "voteTotal",
      "outputs": [
        {
          "internalType": "uint256",
          "name": "",
          "type": "uint256"
        }
      ],
      "stateMutability": "view",
      "type": "function"
    },
    {
      "inputs": [
        {
          "internalType": "address",
          "name": "",
          "type": "address"
        }
      ],
      "name": "voters",
      "outputs": [
        {
          "internalType": "bool",
          "name": "",
          "type": "bool"
        }
      ],
      "stateMutability": "view",
      "type": "function"
    },
    {
      "inputs": [
        {
          "internalType": "string",
          "name": "_name",
          "type": "string"
        },
        {
          "internalType": "string",
          "name": "_party",
          "type": "string"
        }
      ],
      "name": "addCandidate",
      "outputs": [],
      "stateMutability": "nonpayable",
      "type": "function"
    },
    {
      "inputs": [
        {
          "internalType": "uint256",
          "name": "_candidateId",
          "type": "uint256"
        }
      ],
      "name": "vote",
      "outputs": [],
      "stateMutability": "nonpayable",
      "type": "function"
    }
  ],
  "bytecode": "0x608060405234801561000f575f80fd5b505f600381905550610efa806100245f395ff3fe608060405234801561000f575f80fd5b5060043610610060575f3560e01c80630121b93f1461006457806326541b56146100805780632d35a8a21461009c5780633477ee2e146100ba5780633e808c90146100ed578063a3ec138d1461010b575b5f80fd5b61007e600480360381019061007991906105c7565b61013b565b005b61009a6004803603810190610095919061072e565b61031f565b005b6100a4610423565b6040516100b191906107b3565b60405180910390f35b6100d460048036038101906100cf91906105c7565b610429565b6040516100e49493929190610846565b60405180910390f35b6100f5610560565b60405161010291906107b3565b60405180910390f35b610125600480360381019061012091906108f1565b610566565b6040516101329190610936565b60405180910390f35b60025f3373ffffffffffffffffffffffffffffffffffffffff1673ffffffffffffffffffffffffffffffffffffffff1681526020019081526020015f205f9054906101000a900460ff16156101c5576040517f08c379a00000000000000000000000000000000000000000000000000000000081526004016101bc906109bf565b60405180910390fd5b5f811180156101d657506001548111155b610215576040517f08c379a000000000000000000000000000000000000000000000000000000000815260040161020c90610a4d565b60405180910390fd5b6002600154101561025b576040517f08c379a000000000000000000000000000000000000000000000000000000000815260040161025290610adb565b60405180910390fd5b600160025f3373ffffffffffffffffffffffffffffffffffffffff1673ffffffffffffffffffffffffffffffffffffffff1681526020019081526020015f205f6101000a81548160ff0219169083151502179055505f808281526020019081526020015f206002015f8154809291906102d390610b26565b919050555060035f8154809291906102ea90610b26565b9190505550807fe447c5464cb203c1da94b4db8588d3cbf313ce4a489122f6b88e87f465b2810e60405160405180910390a250565b5f60035414610363576040517f08c379a000000000000000000000000000000000000000000000000000000000815260040161035a90610bdd565b60405180910390fd5b60015f81548092919061037590610b26565b9190505550604051806080016040528060015481526020018381526020015f8152602001828152505f8060015481526020019081526020015f205f820151815f015560208201518160010190816103cc9190610df5565b506040820151816002015560608201518160030190816103ec9190610df5565b509050506001547f05fffb0dd575c18ae70b8193c906c65ccecab23ed3009f421cf23d15651d058960405160405180910390a25050565b60015481565b5f602052805f5260405f205f91509050805f01549080600101805461044d90610c28565b80601f016020809104026020016040519081016040528092919081815260200182805461047990610c28565b80156104c45780601f1061049b576101008083540402835291602001916104c4565b820191905f5260205f20905b8154815290600101906020018083116104a757829003601f168201915b5050505050908060020154908060030180546104df90610c28565b80601f016020809104026020016040519081016040528092919081815260200182805461050b90610c28565b80156105565780601f1061052d57610100808354040283529160200191610556565b820191905f5260205f20905b81548152906001019060200180831161053957829003601f168201915b5050505050905084565b60035481565b6002602052805f5260405f205f915054906101000a900460ff1681565b5f604051905090565b5f80fd5b5f80fd5b5f819050919050565b6105a681610594565b81146105b0575f80fd5b50565b5f813590506105c18161059d565b92915050565b5f602082840312156105dc576105db61058c565b5b5f6105e9848285016105b3565b91505092915050565b5f80fd5b5f80fd5b5f601f19601f8301169050919050565b7f4e487b71000000000000000000000000000000000000000000000000000000005f52604160045260245ffd5b610640826105fa565b810181811067ffffffffffffffff8211171561065f5761065e61060a565b5b80604052505050565b5f610671610583565b905061067d8282610637565b919050565b5f67ffffffffffffffff82111561069c5761069b61060a565b5b6106a5826105fa565b9050602081019050919050565b828183375f83830152505050565b5f6106d26106cd84610682565b610668565b9050828152602081018484840111156106ee576106ed6105f6565b5b6106f98482856106b2565b509392505050565b5f82601f830112610715576107146105f2565b5b81356107258482602086016106c0565b91505092915050565b5f80604083850312156107445761074361058c565b5b5f83013567ffffffffffffffff81111561076157610760610590565b5b61076d85828601610701565b925050602083013567ffffffffffffffff81111561078e5761078d610590565b5b61079a85828601610701565b9150509250929050565b6107ad81610594565b82525050565b5f6020820190506107c65f8301846107a4565b92915050565b5f81519050919050565b5f82825260208201905092915050565b5f5b838110156108035780820151818401526020810190506107e8565b5f8484015250505050565b5f610818826107cc565b61082281856107d6565b93506108328185602086016107e6565b61083b816105fa565b840191505092915050565b5f6080820190506108595f8301876107a4565b818103602083015261086b818661080e565b905061087a60408301856107a4565b818103606083015261088c818461080e565b905095945050505050565b5f73ffffffffffffffffffffffffffffffffffffffff82169050919050565b5f6108c082610897565b9050919050565b6108d0816108b6565b81146108da575f80fd5b50565b5f813590506108eb816108c7565b92915050565b5f602082840312156109065761090561058c565b5b5f610913848285016108dd565b91505092915050565b5f8115159050919050565b6109308161091c565b82525050565b5f6020820190506109495f830184610927565b92915050565b7f566f746520616c726561647920636173742066726f6d207468697320616464725f8201527f6573730000000000000000000000000000000000000000000000000000000000602082015250565b5f6109a96023836107d6565b91506109b48261094f565b604082019050919050565b5f6020820190508181035f8301526109d68161099d565b9050919050565b7f43616e646964617465204944206973206e6f7420696e2072616e6765206f66205f8201527f63616e6469646174657300000000000000000000000000000000000000000000602082015250565b5f610a37602a836107d6565b9150610a42826109dd565b604082019050919050565b5f6020820190508181035f830152610a6481610a2b565b9050919050565b7f4d757374206265206174206c6561737420322063616e646964617465732062655f8201527f666f726520766f7465732063616e206265206361737400000000000000000000602082015250565b5f610ac56036836107d6565b9150610ad082610a6b565b604082019050919050565b5f6020820190508181035f830152610af281610ab9565b9050919050565b7f4e487b71000000000000000000000000000000000000000000000000000000005f52601160045260245ffd5b5f610b3082610594565b91507fffffffffffffffffffffffffffffffffffffffffffffffffffffffffffffffff8203610b6257610b61610af9565b5b600182019050919050565b7f43616e6e6f74207375626d69742063616e6469646174652061667465722066695f8201527f72737420766f7465207265636f72646564000000000000000000000000000000602082015250565b5f610bc76031836107d6565b9150610bd282610b6d565b604082019050919050565b5f6020820190508181035f830152610bf481610bbb565b9050919050565b7f4e487b71000000000000000000000000000000000000000000000000000000005f52602260045260245ffd5b5f6002820490506001821680610c3f57607f821691505b602082108103610c5257610c51610bfb565b5b50919050565b5f819050815f5260205f209050919050565b5f6020601f8301049050919050565b5f82821b905092915050565b5f60088302610cb47fffffffffffffffffffffffffffffffffffffffffffffffffffffffffffffffff82610c79565b610cbe8683610c79565b95508019841693508086168417925050509392505050565b5f819050919050565b5f610cf9610cf4610cef84610594565b610cd6565b610594565b9050919050565b5f819050919050565b610d1283610cdf565b610d26610d1e82610d00565b848454610c85565b825550505050565b5f90565b610d3a610d2e565b610d45818484610d09565b505050565b5b81811015610d6857610d5d5f82610d32565b600181019050610d4b565b5050565b601f821115610dad57610d7e81610c58565b610d8784610c6a565b81016020851015610d96578190505b610daa610da285610c6a565b830182610d4a565b50505b505050565b5f82821c905092915050565b5f610dcd5f1984600802610db2565b1980831691505092915050565b5f610de58383610dbe565b9150826002028217905092915050565b610dfe826107cc565b67ffffffffffffffff811115610e1757610e1661060a565b5b610e218254610c28565b610e2c828285610d6c565b5f60209050601f831160018114610e5d575f8415610e4b578287015190505b610e558582610dda565b865550610ebc565b601f198416610e6b86610c58565b5f5b82811015610e9257848901518255600182019150602085019450602081019050610e6d565b86831015610eaf5784890151610eab601f891682610dbe565b8355505b6001600288020188555050505b50505050505056fea2646970667358221220da39aefa44a54fd1cda747036fc70d819d0ceed8fbe3c567bf49071d1bf8afa364736f6c63430008170033",
  "immutableReferences": {},
  "source": "// SPDX-License-Identifier: MIT\npragma solidity ^0.8;\n\ncontract Election {\n    // Constructor\n    constructor() {\n        voteTotal = 0;\n    }\n\n    struct Candidate {\n        uint id;\n        string name;\n        uint voteCount;\n        string party;\n    }\n\n    // Read/write Candidates\n    mapping(uint => Candidate) public candidates;\n\n    // Store Candidates Count\n    uint public candidatesCount;\n\n    function addCandidate(string memory _name, string memory _party) public {\n        require(voteTotal == 0, \"Cannot submit candidate after first vote recorded\");\n\n        candidatesCount++;\n        candidates[candidatesCount] = Candidate(candidatesCount, _name, 0, _party);\n\n        emit AddCandidateEvent(candidatesCount);\n    }\n\n    event AddCandidateEvent(uint indexed candidateId);\n\n    // Read/write voters\n    mapping(address => bool) public voters;\n\n    uint public voteTotal;\n\n    function vote(uint _candidateId) public {\n        require(!voters[msg.sender], \"Vote already cast from this address\");\n        require(_candidateId > 0 && _candidateId <= candidatesCount, \"Candidate ID is not in range of candidates\");\n        require(candidatesCount >= 2, \"Must be at least 2 candidates before votes can be cast\");\n\n        voters[msg.sender] = true;\n        candidates[_candidateId].voteCount++;\n        voteTotal++;\n\n        emit VotedEvent(_candidateId);\n    }\n\n    event VotedEvent(uint indexed candidateId);\n}\n",
  "sourcePath": "C:\\Users\\Administrator\\Desktop\\voting-dapp-master\\contracts\\Election.sol",
  "compiler": {
    "name": "solc",
    "version": "0.8.23+commit.f704f362.Emscripten.clang"
  },
  "schemaVersion": "3.4.16",
  "updatedAt": "2023-12-15T06:54:27.009Z",
  "devdoc": {
    "kind": "dev",
    "methods": {},
    "version": 1
  },
  "userdoc": {
    "kind": "user",
    "methods": {},
    "version": 1
  }
}